{
  "contractName": "Calculator",
  "abi": [
    {
      "inputs": [
        {
          "name": "val",
          "type": "uint256"
        }
      ],
      "payable": false,
      "stateMutability": "nonpayable",
      "type": "constructor"
    },
    {
      "constant": true,
      "inputs": [],
      "name": "getResult",
      "outputs": [
        {
          "name": "",
          "type": "uint256"
        }
      ],
      "payable": false,
      "stateMutability": "view",
      "type": "function"
    },
    {
      "constant": false,
      "inputs": [
        {
          "name": "num",
          "type": "uint256"
        }
      ],
      "name": "addToNumber",
      "outputs": [
        {
          "name": "",
          "type": "uint256"
        }
      ],
      "payable": false,
      "stateMutability": "nonpayable",
      "type": "function"
    },
    {
      "constant": false,
      "inputs": [
        {
          "name": "num",
          "type": "uint256"
        }
      ],
      "name": "substractFromNumber",
      "outputs": [
        {
          "name": "",
          "type": "uint256"
        }
      ],
      "payable": false,
      "stateMutability": "nonpayable",
      "type": "function"
    },
    {
      "constant": true,
      "inputs": [],
      "name": "multiplyWithNumber",
      "outputs": [
        {
          "name": "",
          "type": "uint256"
        }
      ],
      "payable": false,
      "stateMutability": "view",
      "type": "function"
    },
    {
      "constant": true,
      "inputs": [],
      "name": "divideNumberBy",
      "outputs": [
        {
          "name": "",
          "type": "uint256"
        }
      ],
      "payable": false,
      "stateMutability": "view",
      "type": "function"
    }
  ],
  "bytecode": "0x608060405234801561001057600080fd5b5060405160208061023c8339810180604052810190808051906020019092919050505080600081905550506101f28061004a6000396000f30060806040526004361061006d576000357c0100000000000000000000000000000000000000000000000000000000900463ffffffff16806306ccd230146100725780630ce4805c146100b357806382f7d5c3146100de578063de29278914610109578063ef455b3c14610134575b600080fd5b34801561007e57600080fd5b5061009d60048036038101908080359060200190929190505050610175565b6040518082815260200191505060405180910390f35b3480156100bf57600080fd5b506100c8610190565b6040518082815260200191505060405180910390f35b3480156100ea57600080fd5b506100f3610199565b6040518082815260200191505060405180910390f35b34801561011557600080fd5b5061011e6101a2565b6040518082815260200191505060405180910390f35b34801561014057600080fd5b5061015f600480360381019080803590602001909291905050506101ab565b6040518082815260200191505060405180910390f35b60008160008082825401925050819055506000549050919050565b60008054905090565b60008054905090565b60008054905090565b600081600080828254039250508190555060005490509190505600a165627a7a72305820b6512e68c0659b7a1888ce63fa36ae55be459109036f5910bd4cc0ae9ff950970029",
  "source": "pragma solidity ^0.4.6;\n\ncontract Calculator {\n\n  uint result;\n\n  constructor(uint val) public \n  {\n      result = val;\n  }\n\n  // returns the result\n  function getResult() public constant returns (uint) {\n    return result;\n  }\n\n  // result = result + num\n  function addToNumber(uint num) public returns (uint) {\n    result += num;\n    return result;\n  }\n\n  // result = result - num\n  function substractFromNumber(uint num) public returns (uint) {\n    result -= num;\n    return result;\n  }\n\n  // result = result * num\n  function multiplyWithNumber() public view returns (uint) {\n    return result;\n  }\n\n  // result = result / num\n  function divideNumberBy() public view returns (uint) {\n    return result;\n  }\n\n}\n",
  "sourcePath": "/Users/mna/Desktop/Ethereum/Ethereum2/truffleprojs/calculator/contracts/calculator.sol",
  "compiler": {
    "name": "solc",
    "version": "0.4.24+commit.e67f0147.Emscripten.clang"
  },
  "schemaVersion": "2.0.1",
  "updatedAt": "2018-11-30T13:20:33.101Z"
}